{
  "contractName": "EnergyManager",
  "abi": [
    {
      "constant": true,
      "inputs": [],
      "name": "owner",
      "outputs": [
        {
          "name": "",
          "type": "address"
        }
      ],
      "payable": false,
      "stateMutability": "view",
      "type": "function"
    },
    {
      "constant": true,
      "inputs": [],
      "name": "buyerAddr",
      "outputs": [
        {
          "name": "",
          "type": "address"
        }
      ],
      "payable": false,
      "stateMutability": "view",
      "type": "function"
    },
    {
      "inputs": [],
      "payable": false,
      "stateMutability": "nonpayable",
      "type": "constructor"
    },
    {
      "anonymous": false,
      "inputs": [
        {
          "indexed": false,
          "name": "buyer",
          "type": "address"
        },
        {
          "indexed": false,
          "name": "name",
          "type": "string"
        }
      ],
      "name": "BuyerRegistered",
      "type": "event"
    },
    {
      "anonymous": false,
      "inputs": [
        {
          "indexed": false,
          "name": "buyer",
          "type": "address"
        },
        {
          "indexed": false,
          "name": "goods",
          "type": "string"
        },
        {
          "indexed": false,
          "name": "quantity",
          "type": "uint256"
        },
        {
          "indexed": false,
          "name": "orderno",
          "type": "uint256"
        }
      ],
      "name": "OrderSent",
      "type": "event"
    },
    {
      "anonymous": false,
      "inputs": [
        {
          "indexed": false,
          "name": "buyer",
          "type": "address"
        },
        {
          "indexed": false,
          "name": "orderno",
          "type": "uint256"
        },
        {
          "indexed": false,
          "name": "price",
          "type": "uint256"
        }
      ],
      "name": "PriceSent",
      "type": "event"
    },
    {
      "anonymous": false,
      "inputs": [
        {
          "indexed": false,
          "name": "buyer",
          "type": "address"
        },
        {
          "indexed": false,
          "name": "orderno",
          "type": "uint256"
        },
        {
          "indexed": false,
          "name": "value",
          "type": "uint256"
        },
        {
          "indexed": false,
          "name": "now",
          "type": "uint256"
        }
      ],
      "name": "SafepaySent",
      "type": "event"
    },
    {
      "constant": false,
      "inputs": [
        {
          "name": "goods",
          "type": "string"
        },
        {
          "name": "quantity",
          "type": "uint256"
        }
      ],
      "name": "sendOrder",
      "outputs": [],
      "payable": true,
      "stateMutability": "payable",
      "type": "function"
    },
    {
      "constant": true,
      "inputs": [
        {
          "name": "number",
          "type": "uint256"
        }
      ],
      "name": "queryOrder",
      "outputs": [
        {
          "name": "buyer",
          "type": "address"
        },
        {
          "name": "goods",
          "type": "string"
        },
        {
          "name": "quantity",
          "type": "uint256"
        },
        {
          "name": "price",
          "type": "uint256"
        },
        {
          "name": "safepay",
          "type": "uint256"
        }
      ],
      "payable": false,
      "stateMutability": "view",
      "type": "function"
    },
    {
      "constant": false,
      "inputs": [
        {
          "name": "orderno",
          "type": "uint256"
        },
        {
          "name": "price",
          "type": "uint256"
        }
      ],
      "name": "sendPrice",
      "outputs": [],
      "payable": true,
      "stateMutability": "payable",
      "type": "function"
    },
    {
      "constant": false,
      "inputs": [
        {
          "name": "orderno",
          "type": "uint256"
        }
      ],
      "name": "sendSafepay",
      "outputs": [],
      "payable": true,
      "stateMutability": "payable",
      "type": "function"
    },
    {
      "constant": true,
      "inputs": [],
      "name": "health",
      "outputs": [
        {
          "name": "",
          "type": "string"
        }
      ],
      "payable": false,
      "stateMutability": "pure",
      "type": "function"
    }
  ],
  "bytecode": "0x608060405234801561001057600080fd5b50336000806101000a81548173ffffffffffffffffffffffffffffffffffffffff021916908373ffffffffffffffffffffffffffffffffffffffff160217905550610aae806100606000396000f300608060405260043610610083576000357c0100000000000000000000000000000000000000000000000000000000900463ffffffff1680637633a22c146100885780638da5cb5b146101185780639670d6991461016f578063a877f215146101d5578063c5cc426a1461022c578063cea9e3601461031a578063fe28524814610344575b600080fd5b34801561009457600080fd5b5061009d610364565b6040518080602001828103825283818151815260200191508051906020019080838360005b838110156100dd5780820151818401526020810190506100c2565b50505050905090810190601f16801561010a5780820380516001836020036101000a031916815260200191505b509250505060405180910390f35b34801561012457600080fd5b5061012d6103a1565b604051808273ffffffffffffffffffffffffffffffffffffffff1673ffffffffffffffffffffffffffffffffffffffff16815260200191505060405180910390f35b6101d3600480360381019080803590602001908201803590602001908080601f0160208091040260200160405190810160405280939291908181526020018383808284378201915050505050509192919290803590602001909291905050506103c6565b005b3480156101e157600080fd5b506101ea6105cc565b604051808273ffffffffffffffffffffffffffffffffffffffff1673ffffffffffffffffffffffffffffffffffffffff16815260200191505060405180910390f35b34801561023857600080fd5b50610257600480360381019080803590602001909291905050506105f2565b604051808673ffffffffffffffffffffffffffffffffffffffff1673ffffffffffffffffffffffffffffffffffffffff16815260200180602001858152602001848152602001838152602001828103825286818151815260200191508051906020019080838360005b838110156102db5780820151818401526020810190506102c0565b50505050905090810190601f1680156103085780820380516001836020036101000a031916815260200191505b50965050505050505060405180910390f35b6103426004803603810190808035906020019092919080359060200190929190505050610757565b005b61036260048036038101908080359060200190929190505050610895565b005b60606040805190810160405280600781526020017f72756e6e696e6700000000000000000000000000000000000000000000000000815250905090565b6000809054906101000a900473ffffffffffffffffffffffffffffffffffffffff1681565b600160009054906101000a900473ffffffffffffffffffffffffffffffffffffffff1673ffffffffffffffffffffffffffffffffffffffff163373ffffffffffffffffffffffffffffffffffffffff1614151561042257600080fd5b60036000815480929190600101919050555060c0604051908101604052808381526020018281526020016003548152602001600081526020016000815260200160011515815250600260006003548152602001908152602001600020600082015181600001908051906020019061049a9291906109dd565b506020820151816001015560408201518160020155606082015181600301556080820151816004015560a08201518160050160006101000a81548160ff0219169083151502179055509050507fb7e953e9d5dc29b2595c1ea82eed1d21925712de892f26dd7323f0040bf3f59c338383600354604051808573ffffffffffffffffffffffffffffffffffffffff1673ffffffffffffffffffffffffffffffffffffffff16815260200180602001848152602001838152602001828103825285818151815260200191508051906020019080838360005b8381101561058b578082015181840152602081019050610570565b50505050905090810190601f1680156105b85780820380516001836020036101000a031916815260200191505b509550505050505060405180910390a15050565b600160009054906101000a900473ffffffffffffffffffffffffffffffffffffffff1681565b6000606060008060006002600087815260200190815260200160002060050160009054906101000a900460ff16151561062a57600080fd5b600160009054906101000a900473ffffffffffffffffffffffffffffffffffffffff16600260008881526020019081526020016000206000016002600089815260200190815260200160002060010154600260008a815260200190815260200160002060030154600260008b815260200190815260200160002060040154838054600181600116156101000203166002900480601f01602080910402602001604051908101604052809291908181526020018280546001816001161561010002031660029004801561073d5780601f106107125761010080835404028352916020019161073d565b820191906000526020600020905b81548152906001019060200180831161072057829003601f168201915b505050505093509450945094509450945091939590929450565b6000809054906101000a900473ffffffffffffffffffffffffffffffffffffffff1673ffffffffffffffffffffffffffffffffffffffff163373ffffffffffffffffffffffffffffffffffffffff161415156107b257600080fd5b6002600083815260200190815260200160002060050160009054906101000a900460ff1615156107e157600080fd5b8060026000848152602001908152602001600020600301819055507f60d45b75a21e219fa57f0168f27b2d5a6a5ebd022df5c262f6fe65338692fd8a600160009054906101000a900473ffffffffffffffffffffffffffffffffffffffff168383604051808473ffffffffffffffffffffffffffffffffffffffff1673ffffffffffffffffffffffffffffffffffffffff168152602001838152602001828152602001935050505060405180910390a15050565b6002600082815260200190815260200160002060050160009054906101000a900460ff1615156108c457600080fd5b3373ffffffffffffffffffffffffffffffffffffffff16600160009054906101000a900473ffffffffffffffffffffffffffffffffffffffff1673ffffffffffffffffffffffffffffffffffffffff1614151561092057600080fd5b34600260008381526020019081526020016000206003015414151561094457600080fd5b3460026000838152602001908152602001600020600401819055507f4ca09f9926d2e48ef31cb6b14dbda230c7420702b8a8f5b878dd572c593e99d233823442604051808573ffffffffffffffffffffffffffffffffffffffff1673ffffffffffffffffffffffffffffffffffffffff16815260200184815260200183815260200182815260200194505050505060405180910390a150565b828054600181600116156101000203166002900490600052602060002090601f016020900481019282601f10610a1e57805160ff1916838001178555610a4c565b82800160010185558215610a4c579182015b82811115610a4b578251825591602001919060010190610a30565b5b509050610a599190610a5d565b5090565b610a7f91905b80821115610a7b576000816000905550600101610a63565b5090565b905600a165627a7a72305820ba5ead261410d31a275da43fa87599c872575438f4d8d00d8c91fe4e6200b2e70029",
  "source": "pragma solidity ^0.4.18;\r\n\r\ncontract EnergyManager {\r\n\r\n  /// The seller's address\r\n  address public owner;\r\n\r\n  /// The buyer's address part on this contract\r\n  address public buyerAddr;\r\n\r\n  /// The Buyer struct  \r\n  struct Buyer {\r\n    address addr;\r\n    string name;\r\n\r\n    bool init;\r\n  }\r\n\r\n  /// The Order struct\r\n  struct Order {\r\n    string goods;\r\n    uint quantity;\r\n    uint number;\r\n    uint price;\r\n    uint safepay;\r\n    bool init;\r\n  }\r\n\r\n  /// The mapping to store orders\r\n  mapping (uint => Order) orders;\r\n\r\n\r\n  /// The sequence number of orders\r\n  uint orderseq;\r\n\r\n\r\n  /// Event triggered for every registered buyer\r\n  event BuyerRegistered(address buyer, string name);\r\n\r\n  /// Event triggered for every new order\r\n  event OrderSent(address buyer, string goods, uint quantity, uint orderno);\r\n\r\n  /// Event triggerd when the order gets valued and wants to know the value of the payment\r\n  event PriceSent(address buyer, uint orderno, uint price);\r\n\r\n  /// Event trigger when the buyer performs the safepay\r\n  event SafepaySent(address buyer, uint orderno, uint value, uint now);\r\n\r\n  /// The smart contract's constructor\r\n  constructor () public {\r\n    /// The seller is the contract's owner\r\n    owner = msg.sender;\r\n  }\r\n\r\n  /// The function to send purchase orders\r\n  ///   requires fee\r\n  ///   Payable functions returns just the transaction object, with no custom field.\r\n  ///   To get field values listen to OrderSent event.\r\n  function sendOrder(string goods, uint quantity) payable public {\r\n    \r\n    /// Accept orders just from buyer\r\n    require(msg.sender == buyerAddr);\r\n\r\n    /// Increment the order sequence\r\n    orderseq++;\r\n\r\n    /// Create the order register\r\n    orders[orderseq] = Order(goods, quantity, orderseq, 0, 0,  true);\r\n\r\n    /// Trigger the event\r\n    emit OrderSent(msg.sender, goods, quantity, orderseq);\r\n\r\n  }\r\n\r\n  /// The function to query orders by number\r\n  ///   Constant functions returns custom fields\r\n  function queryOrder(uint number) constant public returns (address buyer, string goods, uint quantity, uint price, uint safepay) {\r\n    \r\n    /// Validate the order number\r\n    require(orders[number].init);\r\n\r\n    /// Return the order data\r\n    return(buyerAddr, orders[number].goods, orders[number].quantity, orders[number].price, orders[number].safepay);\r\n  }\r\n\r\n  /// The function to send the price to pay for order\r\n  ///  Just the owner can call this function\r\n  ///  requires free\r\n  function sendPrice(uint orderno, uint price) payable public {\r\n  \r\n    /// Only the owner can use this function\r\n    require(msg.sender == owner);\r\n\r\n    /// Validate the order number\r\n    require(orders[orderno].init);\r\n      /// Update the order price\r\n      orders[orderno].price = price;\r\n\r\n\r\n    /// Trigger the event\r\n    emit PriceSent(buyerAddr, orderno, price);\r\n\r\n  }\r\n\r\n  /// The function to send the value of order's price\r\n  ///  This value will be blocked until the delivery of order\r\n  ///  requires fee\r\n  function sendSafepay(uint orderno) payable public {\r\n\r\n    /// Validate the order number\r\n    require(orders[orderno].init);\r\n\r\n    /// Just the buyer can make safepay\r\n    require(buyerAddr == msg.sender);\r\n\r\n    /// The order's value plus the shipment value must equal to msg.value\r\n    require(orders[orderno].price == msg.value);\r\n\r\n    orders[orderno].safepay = msg.value;\r\n\r\n    emit SafepaySent(msg.sender, orderno, msg.value, now);\r\n  }\r\n\r\n \r\n  function health() pure public returns (string) {\r\n    return \"running\";\r\n  }\r\n}",
  "sourcePath": "c:\\Chainskills\\Projects\\SmartToken3\\contracts\\EnergyManager3.sol",
  "compiler": {
    "name": "solc",
    "version": "0.4.24+commit.e67f0147.Emscripten.clang"
  },
  "schemaVersion": "2.0.0",
  "updatedAt": "2018-05-28T13:43:16.802Z"
}